:020000040800F2
:1000000020210020990100087D480008594000087F
:100010007B480008F9180008B953000800000000E8
:1000200000000000000000000000000001010008C6
:10003000F71D00080000000045010008D14B000832
:10004000B3010008B3010008B3010008B3010008C0
:10005000B3010008B3010008B3010008B3010008B0
:10006000B3010008B3010008B3010008911D0008A6
:10007000B3010008B30100089D1D0008A91D000878
:10008000B51D0008C11D0008B3010008B301000838
:10009000B3010008B3010008B3010008B301000870
:1000A000B3010008B3010008B3010008B301000860
:1000B000B3010008B3010008654C0008B301000853
:1000C000B3010008B3010008B3010008B301000840
:1000D000B301000885520008D5520008B30100089A
:1000E000091E0008B3010008B3010008DFF80CD0B6
:1000F00000F03EFD00480047F56E0008202100207A
:10010000224B19680868B0E8F00F80F30988BFF344
:100110006F8F4FF0000080F311884EF00D0E704786
:100120000000000006480068006880F3088862B696
:1001300061B6BFF34F8FBFF36F8F00DF00BF00BF0B
:1001400008ED00E0EFF30980BFF36F8F0F4B1A68E3
:1001500020E9F00F106008B54FF0500080F31188CF
:10016000BFF34F8FBFF36F8F07F012FE4FF0000009
:1001700080F31188BDE8084019680868B0E8F00FFE
:1001800080F30988BFF36F8F704700BFD000002055
:10019000EFF3058070470000064880470648004797
:1001A000FEE7FEE7FEE7FEE7FEE7FEE7FEE7FEE727
:1001B000FEE7FEE7634C0008ED000008202A04DBA0
:1001C000203A21FA02F00021704721FA02F3D040D0
:1001D000C2F12002914008431946704740EA0103EA
:1001E0009B0703D009E008C9121F08C0042AFAD2ED
:1001F00003E011F8013B00F8013B521EF9D27047B1
:10020000D2B201E000F8012B491EFBD27047002258
:10021000F6E710B513460A4604461946FFF7F0FF05
:10022000204610BD70B50F4D00B92868002412E0BB
:100230000A4602E09E4203D0521C1378002BF9D1EB
:10024000DAB2224305D02BB124B1002100F8011B02
:1002500004E00446401C0678002EE9D128602046C0
:1002600070BD000030010020F0B480EA0102D40F1C
:100270004200B2EB410F02D20246084611464A0044
:1002800042D0C30DDDB2C1F3C752AD1A202D35DA0D
:10029000C1F3160141F4000204B15242C5F1200637
:1002A00002FA06F12A411044B3EBD05F23D0C4B167
:1002B000012DA0EBC35009DCF0BC4FF0004202EA74
:1002C000C352DBB200F5000000F069BA400000F153
:1002D000807000EBC350A0F1807040EAD1704900FB
:1002E00009E0490841EAC071A0EBC35000F50000E5
:1002F000400800EBC350F0BC00F048BA6142012254
:1003000002EB4101001BF6E7F0BC704781F00041B1
:10031000AAE780F00040A7E780EA010210B502F0EA
:100320000043400022D04A001FD0010E01EB1261B1
:10033000C0F35600C2F3560240F4000042F400023B
:10034000A0FB022000047F39140400D0401C50EAB6
:10035000124001D44000491EC2B20C0604EBD0107A
:10036000401C4008802A02D003E0002010BD20F08D
:100370000100002900DA0020184310BD30B480EAE3
:10038000010202F0004530F0004221F0004013D09D
:1003900090B1C30DD40DC2F31601C0F31600E41AD8
:1003A00041F4000140F400027D34914201D3641C09
:1003B00000E04900002C02DA30BC002070474FF406
:1003C00000000023914201D3891A034340084FEAF9
:1003D0004101F7D151B1914202D14FF0004105E006
:1003E00002D24FF0010101E06FF0010103EBC450B4
:1003F000284430BC00F0CAB9420005D0C0F3C7524F
:100400005242914201DC0020704700EBC15070471E
:100410002DE9FE4F81EA030404F0004421F000417D
:1004200000944FF0000B23F0004350EA01045ED02B
:1004300052EA03045BD0C3F30A54C1F30A552C44B7
:10044000A4F2F3340194A0FB0254C1F3130141F46C
:100450008011C3F3130343F4801301FB024400FB38
:10046000034E840A970A44EA815447EA8357A4FB5F
:10047000076802958D0A05FB07854FEA932C04FB5C
:100480000C542705029D4FEA065847EA1637B5EB8C
:1004900008056EEB070C870E920E47EA811742EAB9
:1004A0008312A7FB0201B6EB0B0164EB00042B0DDA
:1004B00043EA0C335E1844EB1C50DA465146E7FB26
:1004C0000201C5F313044FEA0B3343EA14534FEA16
:1004D0000432019C43EA0603A4F10C040294009C3C
:1004E000CDE900B400F098F903B0BDE8F08F00202A
:1004F0000146F9E7C10F80EAE0700844CA07962375
:10050000002100F04CB996230022114600F047B9B3
:1005100000F0004220F00040C10DC0F3160040F48E
:1005200000007F2901DA00207047962903DCC1F121
:100530009601C84001E096398840002AF4D0404234
:10054000704720F00040C10DC0F3160040F40000D9
:100550007F2901DA00207047962903DCC1F196015A
:10056000C840704796398840704770B5C1F30A5249
:1005700001F000450024C1F3130140F2FF3341F4C0
:1005800080119A4201DA002070BD40F233439A4252
:10059000A2F2334203DC5242FFF710FE00E090402B
:1005A0002C43F1D0404270BDC1F30A5210B5C1F3E3
:1005B000130140F2FF3341F480119A4201DA002026
:1005C00010BD40F233439A42A2F2334203DC52425E
:1005D000FFF7F4FD10BD904010BD00F0004230F078
:1005E00000400AD0C10D01F56071C0F3160042EA67
:1005F0000151C2084007114370470020014670476F
:1006000001F0004330B421F0004150EA010206D06D
:100610000A0DA2F56072C1F31301002A02DC30BC9E
:1006200000207047440F44EAC104C100E01830BC08
:1006300000EBC25000F0AAB8002801DBC0F1004076
:10064000002901DBC1F1004181427047002801DB34
:10065000C0F10040002901DBC1F100418842704730
:1006600030B50B46014600202022012409E021FA82
:1006700002F59D4205D303FA02F5491B04FA02F57F
:100680002844151EA2F10102F1DC30BD2DE9F05F16
:100690000546002092469B468846064681464024F1
:1006A0001BE02846414647462246FFF787FD534652
:1006B0005A46C01A914110D311461846224600F0FE
:1006C00069FA2D1A67EB01084F46224601200021E6
:1006D00000F060FA17EB00094E41201EA4F101045E
:1006E000DFDC484631462A464346BDE8F09F00001D
:1006F0000FB4002300B589B00CA900910B996FF0DD
:100700000042CB601E4B06931E4B07930423CDE99A
:1007100001321D4A089202466B46002000F0F4FAAE
:1007200009B05DF814FB70B586B006464FF0FF3097
:100730000091CDE90101002015460C460490324697
:10074000694604A8FFF7D4FF02460498211825B192
:1007500008B1084600E020462860049800280DD023
:10076000002A02DD0098884208D0081B0094CDE9D9
:1007700001043246694604A8FFF7BAFF06B070BD0F
:10078000410F00085F0F0008D70B00080029A8BF21
:100790007047401C490008BF20F00100704710B4AA
:1007A000B0FA80FC00FA0CF050EA010404BF10BC5F
:1007B000704749B1CCF1200421FA04F411FA0CF18C
:1007C00018BF012121430843A3EB0C01CB1D4FEAC5
:1007D00000614FEA102042BF002010BC704700EBC0
:1007E000C35010440029A4BF10BC7047401C4900EE
:1007F00008BF20F0010010BC704710B5141E73F143
:10080000000408DA401C41F1000192185B411A43D0
:1008100001D120F0010010BD2DE9F04D92469B461C
:1008200011B1B1FA81F202E0B0FA80F220329046C2
:1008300000F0B0F904460F4640EA0A0041EA0B0115
:1008400053465A46084313D0114653EA010019D0C3
:10085000C8F140025046FFF7B1FC05460E4650462F
:100860005946424600F096F9084305D0012004E0BD
:1008700020463946BDE8F08D0020054346EAE07683
:100880002C4337430A986305E40AA0EB08000022D2
:10089000FD0A44EA47540A3002D500200146E9E740
:1008A000010510196941DDE9084500196941BDE8F4
:1008B000F04DA2E72DE9FE4F804681EA0300C00F0C
:1008C0000C46009021F0004123F00045B8EB0200F7
:1008D000A94105D24046214690461C460B46024699
:1008E00023F00040104347D0270DC7F30A00C3F39D
:1008F0000A510290401A019040286BDAC3F31300AA
:1009000040F4801B0098924620B10023D2EB030AEA
:1009100063EB0B0B01985946C0F14002504600F0C2
:1009200039F906460D4650465946019A00F041F9FC
:1009300010EB08006141002487EA115284EAE77352
:100940001A4340D0009A62B3019A012A4FEA075233
:1009500015DC001B61EB02014FF0004202EA075276
:10096000CDE90042001C41F5801132462B46FFF7CD
:1009700053FF03B0BDE8F08F40462146F9E7001B66
:1009800061EB0201001C41F5801300185B41201847
:10099000A2F5001747EB030140EAD570B6196D4187
:1009A00011E06D084FEA360645EAC0754FEA075276
:1009B000001B61EB0201001C41F5801149084FEA60
:1009C00030000019514132462B4603B0BDE8F04FCC
:1009D000FFF713BF0098012240000023D0EB020272
:1009E00063EBE073009821464FEAE074B8EB000037
:1009F00061EB0401E9E783F000435BE781F000412C
:100A000058E72DE9F04D81EA030404F0004B21F092
:100A1000004514464FF0000A23F0004150EA050259
:100A200020D054EA01021DD0C5F30A570246C5F38F
:100A30001303C1F31300C1F30A5640F4801543F4C5
:100A40008013A7EB0608101BD64608F2FD3873EB9F
:100A5000050002D308F1010801E092185B41B8F1EA
:100A6000000F03DA00200146BDE8F08D00204FF4AE
:100A70008011064684460EE0171B73EB050705D36D
:100A8000121B63EB050306434CEA010C49084FEACD
:100A9000300092185B4150EA0107EDD152EA0300A1
:100AA00012D082EA040083EA0501084305D0101B36
:100AB000AB4106D20122002306E000224FF00043A2
:100AC00002E06FF0010253101AEB06004CEB0851E4
:100AD00010EB0A0041EB0B01BDE8F04DFFF78DBEB6
:100AE00070B521F0004303430CD0C1F30A55002434
:100AF000D5EB040564EB0403D617AD1AB34102DB52
:100B00000020014670BD201841EB025170BDC1F3B9
:100B10000A52C1F3130140F2FF3341F480119A42AB
:100B200002DA00200146704740F233439A42A2F2B3
:100B3000334202DC5242FFF741BB00F02BB8000009
:100B400030B5041E71F1000404DB4FF00044404254
:100B500064EB0101141E73F1000405DB1C464FF029
:100B60000043524263EB0403994208BF904230BDF8
:100B7000064C074D06E0E06840F0010394E80700EA
:100B800098471034AC42F6D3FFF7B4FADC8D000876
:100B9000FC8D0008202A04DB203A00FA02F1002034
:100BA00070479140C2F1200320FA03F319439040AB
:100BB0007047202A06DBCB17203A41FA02F043EABD
:100BC000E07306E041FA02F3D040C2F12002914006
:100BD000084319467047C0B24FF4F05100F022BAF2
:100BE0002DE9FF4F087883B09946FF2805D0491CAE
:100BF0002D2804D00024002008E000200BE0012470
:100C0000F9E700EB800003EB4000491C0B78FF2B59
:100C1000F7D104B1404200230293147819461D46CF
:100C20002D2C01D02B2C04D1521C2D2C13D00024A0
:100C30000294AA461478FF2C0FD00A25A3FB05784E
:100C400001FB05814FF0000C03FB0C11521CE31952
:100C50004AEB0101EEE70124EAE7814453EA01008F
:100C600002D019F5C87F06DA03980021C0E9001107
:100C700007B0BDE8F08F0025AE4E2F46DFF8B882F2
:100C8000184600F0E3F9CDE90001B9F1000002DAFD
:100C9000C9F1000400E004460023A74A1AEB030B45
:100CA00042EB045A12E0E00707D02A4633463846A2
:100CB0004146FFF7ADFB074688462A4633461046B5
:100CC0001946FFF7A5FB05460E466410002CEAD135
:100CD000DDE90001B9F1000F5A46534606DAFFF785
:100CE00090FE3A464346FFF78CFE05E0FFF790FB87
:100CF0003A464346FFF78CFB029A0AB181F0004165
:100D0000039AC2E90001B3E72DE9FF4F1F468DB0FA
:100D1000D7E901464FF0FF382E2045464FF0000935
:100D20000B90B9696D1C0E988847396A82468847CE
:100D30000028F6D1BAF1FF3F0AD024F4D064002E87
:100D400011DDBAF12B0F08D0BAF12D0F0BD102E053
:100D5000404611B08DE744F48064B9696D1C0E986B
:100D600088478246761E6946600501D52D2000E041
:100D70002B208DF8000001F1010B0DF1200809E096
:100D8000B9696D1C0E98884782460F9844F4007428
:100D9000761E0560002E02DDBAF1300FF0D00B99FF
:100DA0008A453ED144F0800406E00F99681CA9F101
:100DB000010944F400740860B9696D1C761E0E9830
:100DC000884782463028F0D02BE00B998A4505D120
:100DD000200603D444F08004761E18E0504604F048
:100DE00071FD08B30DF11301761E44F400748B45B8
:100DF00008D2AAF130000BF8010B200607D5A9F1A3
:100E0000010003E0200602D409F101008146A0059B
:100E100002D50F99681C0860B9696D1C0E98884747
:100E20008246002ED1DC53E0002E51DDBAF1650F71
:100E300002D0BAF1450F4BD1A00549D5B9696D1C57
:100E400024F44074761E0E9888478246002E0CDDEE
:100E50002B2804D0BAF12D0F07D144F48074B9695E
:100E60006D1C0E9888478246761EE00501D52D211F
:100E700000E02B2108F8011BCDF82C8021E00DF1BA
:100E80002901761E44F4007488450CD2AAF1300082
:100E900010F0FF0088F8000002D10B99884509D9AD
:100EA00008F1010806E0E00501D5244801E042F21E
:100EB0000F708146B9696D1C0E98884782460F985D
:100EC0000560002E04DD504604F0FCFC0028D6D15D
:100ED000F9690E988847FF208BF8000088F8000019
:100EE0000020069007904B466A4608A906A8FFF71F
:100EF00077FEA00502D46FF001002AE714F0240F5A
:100F00000AD0E00714D1DDE906123868031D3B6002
:100F10000068C0E900120BE0DDE90601FFF770FB95
:100F20000146E00704D13868021D3A60006801609C
:100F300028460EE7000014400000F03FF1D8FFFF04
:100F4000426842B1016811F8013B23B1521EC0E969
:100F50000012184670470121C160881E7047426820
:100F60005AB1C368016843B983688B4205D0491EF2
:100F7000521CC0E90012002070474FF0FF3070474C
:100F80002DE9F04D00231A461B1A8A4103DB00208D
:100F90000146BDE8F08DC1F30A52C1F3130141F4DB
:100FA00080154FF0000BD10702D100186D41521E81
:100FB0000027044640F2FF11384601EB620A3E4624
:100FC0008046024600204FF48011FFF7F7F8C2195F
:100FD0007141BB1846EB0100B4EB030C75EB000C40
:100FE00004D3E41A65EB000517460E46241908F1F0
:100FF00001006D4180463428E3DDF91946EB060017
:10100000091BA84103D24FF0FF32134601E0002232
:1010100013461BEB070046EB0A51BDE8F04DFFF706
:10102000ECBB00007F2801D9002208E0064A02EB51
:101030005002C007127800D1120902F00F020120FD
:101040009040084070470000E88C00080EB540F260
:10105000334202920022CDE900221346FFF7DCFB67
:1010600003B000BD70B58C1810F8015B15F00703D4
:1010700001D110F8013B2A1106D110F8012B03E031
:1010800010F8016B01F8016B5B1EF9D12B0705D439
:101090000023521E0DD401F8013BFAE710F8013B82
:1010A000CB1A921C03E013F8015B01F8015B521E9E
:1010B000F9D5A142D8D3002070BD000070B5044618
:1010C00000688168C943C90717D1816821F001010F
:1010D000816001F013FD05460AE000BF01F00EFD3E
:1010E000401B022804D920688068C043C00706D08E
:1010F00020688068C043C007F0D0002070BDA06A9F
:1011000040F01000A062E06A40F00100E0620120BF
:1011100070BD10B50146406A826A12F0500F05D0CA
:10112000006A026BBDE8104008461047816A41F42E
:101130000071816201688968C1F3424107290CD1BD
:10114000017B51B9816A21F480718162816AC9048D
:1011500003D4816A41F00101816200F0EBFF10BD10
:1011600010B5406A816A41F040018162C16A41F074
:101170000401C16200F0E0FF10BD10B5406A00F04C
:10118000DAFF10BDF8B500260446009600688168B5
:10119000C943C9072DD0816841F00101816016481B
:1011A00016490068B0FBF1F000E0401E00900028F6
:1011B000FBD101F0A3FC054616E000BF01F09EFC48
:1011C000401B022810D920688068C043C0070BD09C
:1011D000A06A40F01000A062E06A40F00100E06206
:1011E00084F824600120F8BD20688068C043C007EF
:1011F000E4D10020F8BD0000CC00002040420F00E8
:101200002DE9F04144498CB00878401CC0B2087008
:10121000012810D00024022812D0032826D0042848
:101220003FD0052847D0062868D0072800D10C7089
:101230000CB0BDE8F0810CB0BDE8F04100F014BA8C
:101240003648B0F90410CDE9011403940494B0F9C0
:1012500002100091B0F900303148B0F90420B0F923
:101260000210B0F9000000F095F9E1E740F24C40BF
:1012700040F26C714FF4E16340F2A462CDE90410D6
:10128000CDE902234FF4C86140F2DC52CDE90021E0
:101290004FF4AF6340F214524FF4966100F022F91C
:1012A000C6E720480088FFF72EF90CB01E49BDE8BC
:1012B000F04100F0D9B81D480068FFF71BF91C4F3A
:1012C0008046F86FFFF724F906B2786AFFF720F935
:1012D00005B2386DFFF71CF90A9408940994059437
:1012E00007940394049406940094CDE9014800B255
:1012F00000233246294600F017FA99E70D48417954
:10130000012901D0022993D144710CB00121BDE81B
:10131000F041022000F08EB85C00002006000020A2
:1013200000000020B8000020B81E634260000020CA
:10133000A00300207801002070B50025044628464F
:101340004A1E04E0235C401C2B44DDB2C0B2904234
:10135000F8DB601810F8010CA8424CD12078AA28BC
:1013600049D16078AF2846D1A1780120012904D164
:10137000217902293FD120490871A178022914D18D
:1013800021791E4A012905D1D070107150719071D8
:10139000D07110722179A02900D110702079A12874
:1013A00003D1A078294600F02BF8A078102802D1AC
:1013B000294600F025F8A078112802D1294600F02E
:1013C0001FF8A078122802D1294600F019F8A07859
:1013D000132802D1294600F013F8A078142802D16E
:1013E000294600F00DF8A078152804D12946BDE85B
:1013F000704000F005B870BD780100202E03002079
:101400000B4AAA2313705370EF2393700223D370F7
:101410001071517100210846135C401C1944C0B280
:10142000C9B20628F8D391710721014803F0C6BF5D
:101430003B0300200B4AAA2313705370EE239370D2
:101440000223D3701071517100210846135C401CB7
:101450001944C0B2C9B20628F8D3917107210148D6
:1014600003F0ACBF3B030020F8B51C4C0246AA2099
:101470002070607005201A4E0F46A070042531467A
:101480001046FEF749FFFFF75CF8ADF800009DF845
:10149000010020719DF80000607131463846FEF76A
:1014A0003BFFFFF74EF8ADF800009DF80100A0717A
:1014B0009DF80000E07108210022E5701046235CD1
:1014C000401C1A44C0B2D2B28842F8D36254BDE87C
:1014D000F8400248491C03F071BF00003B030020A4
:1014E0000000C8423FB42A48AA210022017041707E
:1014F000032181709DF8011001719DF80010417168
:101500009DF8051081719DF80410C1719DF80910B6
:1015100001729DF8081041729DF80D1081729DF8BE
:101520000C10C1729DF8191001739DF818104173C9
:101530009DF81D1081739DF81C10C1739DF821103A
:1015400001749DF8201041749DF8251081749DF858
:101550002410C1749DF8291001759DF8281041755B
:101560009DF82D1081759DF82C10C175182114243B
:101570001346C470845C521C2344D2B2DBB28A424C
:10158000F8D3435404B0024830BC491C03F016BFE2
:101590003B0300202DE9F84F0AACAA2794E8001F6E
:1015A000304C00263546277067700227A770ADF8CB
:1015B00000009DF8010020719DF800006071ADF8F9
:1015C00000109DF80100A0719DF80000E071ADF8D9
:1015D00000209DF8010020729DF800006072ADF8B7
:1015E00000309DF80100A0729DF80000E072ADF897
:1015F00000809DF8010020739DF800006073ADF835
:1016000000909DF80100A0739DF80000E073ADF814
:1016100000A09DF8010020749DF800006074ADF8F2
:1016200000B09DF80100A0749DF80000E074ADF8D2
:1016300000C09DF8010020759DF80000607516211E
:101640001220E0702046425D6D1C3244EDB2D6B2ED
:101650008D42F8D34654BDE8F84F0248491C03F0C8
:10166000ADBE00003B0300202DE9F8432B4CAA201F
:101670002B4F207001266070DFF8A880A67000252F
:101680004146F869FEF748FEFEF742FFADF800005C
:101690009DF8010020719DF8000060714146B86915
:1016A000FEF73AFEFEF734FFADF800009DF80100AA
:1016B000A0719DF80000E0714146386AFEF72CFEEB
:1016C000FEF726FFADF800009DF8010020729DF89E
:1016D0000000607242F20F7000909DF80300A0724B
:1016E0009DF80200E0729DF8010020739DF8000053
:1016F0006073A673E6730C201021E0700020224670
:10170000135C401C2B44C0B2DDB28842F8D3555460
:10171000BDE8F8430148491C03F050BE3B030020DC
:10172000C80200200000C8422DE9FF4F81B0644884
:10173000DDE91718DDE9154ADDE91195DDE90F76D8
:10174000DDE913EB4FF0AA0C00F811CB002300F8F1
:1017500010CC4FF0F10C00F80FCCDDF804C01A46A5
:10176000ADF800C09DF801C000F80DCC9DF800C098
:1017700000F80CCCDDF808C0ADF800C09DF801C041
:1017800000F80BCC9DF800C000F80ACCDDF80CC0C6
:10179000ADF800C09DF801C000F809CC9DF800C06C
:1017A00000F808CCDDF810C0ADF800C09DF801C00D
:1017B00000F807CC9DF800C000F806CCDDF838C072
:1017C000ADF800C09DF801C000F805CC9DF800C040
:1017D00000F804CC4FEA176C00F803CC4FEA174C22
:1017E00000F802CC4FEA172C00F801CC0770370E36
:1017F0004770370C8770370AC77006714FEA196750
:1018000047714FEA194787714FEA1927C77180F866
:1018100008902E0E46722E0C86722E0AC672057322
:101820004FEA1E6646734FEA1E4686734FEA1E262F
:10183000C67380F810E04FEA1B6646744FEA1B46F9
:1018400086744FEA1B26C67480F814B0250E4575C1
:10185000250C8575250AC57504764FEA1A65457607
:101860004FEA1A4585764FEA1A25C57680F81CA0FE
:101870000C0E44770C0C84770C0AC47700F8201FF8
:101880004FEA186141704FEA184181704FEA182100
:10189000C17080F804803621322400F82E4C0848AC
:1018A000845C521C2344D2B2DBB28A42F8D3435444
:1018B00005B00348BDE8F04F491C03F07FBD0000B0
:1018C0003B03002070B50A4C94F8980101280ED112
:1018D00004F1D0006188074A054602F0D3FF618811
:1018E0002846FEF794FC0020608084F8980170BDC3
:1018F000DE08002078000020FEE7000010B5064C4E
:1019000001221021204601F0F4F820460022BDE813
:101910001040082101F0EDB8000C014010B5064C54
:1019200000221021204601F0E4F820460122BDE803
:101930001040082101F0DDB8000C014070B5012213
:101940000B4D14032146284601F0D3F8012256031B
:101950003146284601F0CDF800223146284601F0F4
:10196000C8F821462846BDE87040002201F0C1B801
:10197000000C014070B5094C01221103204601F012
:10198000B8F8651400222946204601F0B2F829462D
:101990002046BDE87040012201F0ABB8000C0140C8
:1019A00070B50122064D14032146284601F0A1F826
:1019B00021462846BDE87040002201F09AB8000098
:1019C000000C01402DE9F041144F04464FF48056BD
:1019D00000223146384601F08CF800254FF40058BB
:1019E00004F08000802816D000224146384601F0DD
:1019F00080F86006040E01223146384601F079F87D
:101A000000223146384601F074F86D1CEDB2082D05
:101A1000E6D3BDE8F0810122E7E70000000C0140B9
:101A200010B50446FFF78AFF7820FFF7CBFFFFF7DA
:101A3000B7FF0020FFF7C6FFFFF7B2FF2046FFF712
:101A4000C1FFFFF7ADFFBDE81040FFF793BF10B532
:101A50000446FFF773FF7820FFF7B4FFFFF7A0FFFE
:101A60004020FFF7AFFFFFF79BFF2046FFF7AAFFDD
:101A7000FFF796FFBDE81040FFF77CBF70B500246C
:101A8000002104F1B00000F074F90021084600F0D4
:101A900070F90021102000F06CF9002501210020D0
:101AA00000F067F96D1CEDB2802DF7D3641CE4B231
:101AB000082CE5D370BD10B5642004F041FE002170
:101AC000AE2000F056F90021084600F052F900213E
:101AD000102000F04EF90021402000F04AF90021CA
:101AE000B02000F046F90021812000F042F90021E9
:101AF000FF2000F03EF90021A12000F03AF900217A
:101B0000A62000F036F90021A82000F032F90021CB
:101B10003F2000F02EF90021C82000F02AF9002112
:101B2000D32000F026F90021084600F022F9002118
:101B3000D52000F01EF90021802000F01AF90021C4
:101B4000D82000F016F90021052000F012F900213C
:101B5000D92000F00EF90021F12000F00AF900214F
:101B6000DA2000F006F90021122000F002F900212D
:101B7000DB2000F0FEF80021302000F0FAF8002110
:101B80008D2000F0F6F80021142000F0F2F800217A
:101B9000BDE81040AF2000F0ECB810B50A4604468E
:101BA000002102F1B00000F0E4F8102040EA141027
:101BB000002100F0DEF804F00F00BDE81040002125
:101BC00000F0D7B82DE9F041203A00240D468046B8
:101BD000D6B27F2803D900208D1C8046EDB2102B91
:101BE000294610D0FFF7D9FF164906EB460001EB56
:101BF00040050121285D00F0BCF8641CE4B2062C0D
:101C0000F7D3BDE8F081FFF7C8FF0F4F04EB0610D4
:101C10000121385C00F0ADF8641CE4B2082CF5D367
:101C20006D1CE9B24046FFF7B8FF002404EB061034
:101C300038440121007A00F09CF8641CE4B2082CBE
:101C4000F4D3DEE7C4820008EC8400082DE9FF4FDE
:101C50004FF0000981B01D46CB4612F1FF4F03D370
:101C600082F000424FF0010933491046FEF754FB61
:101C7000FEF767FC1FFA80FA0E9800246F1E4608D4
:101C800031E0281B0090401EC1B20A2000F077F816
:101C9000BAFBF0F20A20B2FBF0F100FB1128BBF115
:101CA000000F06D1BC4204DAB8F1000F20D04FF08B
:101CB000010BBC420AD101982E2206FB0400C0B2DF
:101CC0000E9B0299FFF77EFF641CE4B208F130001E
:101CD000C2B201980E9B06FB0400C0B20299FFF746
:101CE00071FF641CE4B2AC42CBD305B0BDE8F08F09
:101CF0000098801EC1B20A2000F041F8BAFBF0F152
:101D00000A20B1FBF0F200FB121010B1B9F1010F83
:101D100006D00198202206FB0400C0B20E9BDDE72E
:101D200001982D2206FB0400C0B20E9B0299FFF71A
:101D300049FF4FF00009D4E7000020412DE9F041B0
:101D4000984617460E46044600250DE043463146A8
:101D50002046FFF737FF0834E4B2782C02D900247C
:101D6000B61CF6B26D1CEDB27A5D002AEED1BDE86C
:101D7000F081C0B209B1FFF76ABEFFF751BE02465B
:101D8000012000E05043491EC9B2FBD27047000059
:101D9000014800F09FBB0000E0050020014800F072
:101DA00099BB0000000B0020014800F093BB00002D
:101DB000440B0020014800F08DBB0000CC0B00203C
:101DC000014800F087BB0000880B002030B590F878
:101DD00040500124AC40C56B6C600468636043688C
:101DE000102B036803D099600068C26030BD9A6010
:101DF0000068C16030BD704700224FF48051014837
:101E000000F077BE000801404FF4006000F068BDAC
:101E100001221103014800F06CBE000000080140DF
:101E200072B6FEE706490020C8610648016941F024
:101E300004010161016941F0400101617047000046
:101E4000100C002000200240064A0021D161064902
:101E50000A6942F002020A614861086940F04000E4
:101E600008617047100C002000200240044B002243
:101E7000DA61044A136943F001031361018070477A
:101E8000100C00200020024010B5002306E000BF27
:101E900050F8234041F823405B1C9BB29342F7D398
:101EA00010BD000014480022C168CB06134904D5B8
:101EB000CA6942F00202CA611022C3685B0705D5F5
:101EC000CB6943F00103CB6142F00402C369DB0735
:101ED00007D0CB6943F00403CB61C16921F0010154
:101EE000C161A2F58071013901D0C2607047C1693A
:101EF00021F00101C161704700200240100C002058
:101F000070B5054600F0FAFD0646114C09E0681C64
:101F100007D025B100F0F2FD801BA84201D90320B3
:101F200070BDE068C007F2D1E068800601D52020CE
:101F3000E060E068C00605D4E069C00702D1E0684F
:101F4000400703D5FFF7AEFF012070BD002070BD34
:101F5000002002400EB58DE80E000322694600F015
:101F600001F80EBD2DE9F0414FF0006516460F4611
:101F70000446A8422ED31849A01988422AD200F05C
:101F800057FCA4F10060800A05EB80211348002271
:101F9000026081600121C16011A003F05FFA144961
:101FA0000E4800F0A7FB10B912A003F057FA002565
:101FB0000AE000BF57F8252000232146022000F048
:101FC000F7FB6D1CADB2241DB542F3D3BDE8F04163
:101FD00000F0E4BBBDE8F08100000108EC02002045
:101FE000B2C1B3FDD2B3CAFDA3BA25640D0A000085
:101FF00058000020B2C1B3FDB3C9B9A60D0A000054
:1020000070B504460D46006804F0A4FB2946FEF7AF
:102010001DFB0DD3606804F09DFB2946FEF716FBFF
:1020200006D3A06804F096FB2946FEF70FFB01D209
:10203000012070BD002070BDF8B50024009490F818
:1020400024202546012A12D0012280F824204A6843
:102050001F23072A0DD20668776B521E02EB8202FD
:1020600093409F430B6893401F43776319E002201E
:10207000F8BD06680D2A0AD2376BD21F02EB820226
:1020800093409F430B6893401F43376309E0F76A0F
:102090000D3A02EB820293409F430B6893401F432B
:1020A000F7620A68072306680A2A0AD3F7680A3A19
:1020B00002EB420293409F438B6893401F43F760BB
:1020C00008E0376902EB420293409F438B689340DC
:1020D0001F4337610A68102A01D0112A20D1124B00
:1020E00002689A4217D193681B0219D4936843F48B
:1020F000000393600968102912D10C490C4A096841
:10210000B1FBF2F101EB8101490000E0491E0091B1
:102110000029FBD104E0816A41F0200181620124A1
:1021200080F824502046F8BD00240140CC00002057
:1021300040420F0070477047704700002DE9F041A2
:102140004FF0000704003D467ED0A06A002628B963
:10215000E66284F82460204600F07EF82046FEF710
:10216000ADFFA16AC90600D420B1A06A40F01000FA
:10217000A06269E0A16A21F4885141F00201A162E4
:102180006268E169237B0A4347EA43010A43A16885
:102190004FF48077B94209D0012907D05FF00001E0
:1021A00094F814C0BCF1010F02D00AE03946F7E7F9
:1021B000F3B1A36A43F02003A362E36A43F001038F
:1021C000E3622368D3F804C02CF4694C4CEA010C98
:1021D000C3F804C021688B68DFF870C003EA0C0301
:1021E00013438B60A168B9420BD0012909D00CE0E0
:1021F000DFF85CC0A3690CEB43330B4343F400618D
:10220000DFE7218A0D05A5F580152168CB6A23F447
:1022100070032B43CB62216889680E4B19409142B1
:1022200008D1E662A16A21F0020141F00101A16238
:10223000BDE8F081A06A20F0020040F01000A0622A
:10224000E06A40F00100E0620120F1E7FDF7E1FF04
:1022500000E0FFFFFE0E1FFF70B586B000250646AA
:10226000009501950295039500681A4988422ED180
:102270001949886940F400708861886900F4007029
:102280000490886940F0040088618869694600F01C
:102290000400049010200090032001900F4800F0EB
:1022A0002BFB104C0E48C4E900058020C4E9025005
:1022B00040002061800060612020C4E906052046BE
:1022C00000F0B2F908B1FFF7ABFD3462666206B008
:1022D00070BD0000002401400010024000080140D1
:1022E00008000240E00500202DE9F0478946044639
:1022F0003B4900683B4F0E1D9046884201D0B842D2
:1023000007D1306810F4702F03D001252846BDE8AE
:10231000F08794F8240001280CD0012084F82400D0
:102320002046FEF72FFF05004FF0000004D084F890
:102330002400EBE70220EAE7A16A40F6016291433C
:1023400041F48071A1622168B94218D1326812F457
:10235000702F14D0A16A41F48011A162316849053F
:1023600005D5A16A21F4005141F48051A162A16A0E
:10237000C9040AD5E16A21F00601E16206E0A26A19
:1023800022F48012A2624968E9E7E06284F824003E
:10239000216A15488862216A1448C862216A144873
:1023A000086321686FF0020008602068816841F4CA
:1023B00080718160216843464A464C31206A00F0B2
:1023C00061F920688168C1F342410729816803D01F
:1023D00041F48011816099E741F4A001FAE700001F
:1023E0000024014000280140131100087B1100085F
:1023F0006111000810B590F821100022022905D0C3
:102400000421816380F82020012010BD01680B6841
:1024100023F00E030B6001680B6823F001030B60CF
:1024200090F84030C46B012101FA03F3636080F837
:10243000211080F82020104610BD000010B590F843
:1024400021100024022903D00421816301243DE0EE
:1024500001680A6822F00E020A6001680A6822F028
:1024600001020A601A4A0168914201D1012121E06A
:10247000174A1432914201D110211BE0144A28322C
:10248000914201D1891515E0114A3C32914201D1A6
:1024900089140FE00E4A5032914202D14FF480313C
:1024A00008E00B4A6432914202D14FF4801101E0FE
:1024B0004FF08071064A083A5160012180F82110DE
:1024C000002180F82010416B01B18847204610BDE3
:1024D000080002402DE9F05FC16B0C6801680B68D1
:1024E000D0F840C0042202FA0CF2494DDFF824A1D2
:1024F000494E4A4FDFF828B1DFF828E122422CD0BC
:102500005A072AD50A68920603D40A6822F0040200
:102510000A600168A94201D1042219E0514501D1A4
:10252000402215E0B14202D14FF4806210E0B9427E
:1025300002D14FF480420BE0594502D14FF4802282
:1025400006E0714502D14FF4800201E04FF0806255
:102550002F4908394A60C16A3BE04FF0020808FA87
:102560000CF818EA040F4FF000094FF0010235D0C3
:102570005FEA837832D50B689B0605D40B6823F09D
:102580000A030B6080F821200168A94201D10222D0
:1025900019E0514501D1202215E0B14202D14FF49A
:1025A000007210E0B94202D14FF400520BE05945DD
:1025B00002D14FF4003206E0714502D14FF400120F
:1025C00001E04FF00072124908394A6080F820900B
:1025D000816A00291AD0BDE8F05F0847082505FA8E
:1025E0000CF5254212D01B0710D50B6823F00E0303
:1025F0000B6090F84010C36B02FA01F159608263DE
:1026000080F8212080F82090016BE2E7BDE8F09F80
:10261000080002401C00024030000240440002401A
:10262000580002406C00024030B528B308C8134976
:1026300014221944B1FBF2F18900C163104981638E
:10264000022141771A6843F6F0718A43D0E90014F9
:102650002143D0E902452C432143046921434469C5
:102660002143846921431143196000214163012200
:1026700042770177084630BD012030BDF8FFFDBF2D
:102680000000024070B5044690F8200000250128A3
:102690000CD0012084F8200094F821600020012E45
:1026A00006D084F820000225284670BD022070BDA7
:1026B000022684F82160A0632068066826F00106DF
:1026C00006602046FFF782FBE06A00282068016868
:1026D00002D041F00E0106E021F004010160206803
:1026E000016841F00A0101602068016841F00101C0
:1026F0000160D9E72DE9F047054626480F46012637
:10270000017E01290FD00121814601762868DFF87A
:1027100088804CF25034022808D0A2462046FFF7A9
:10272000EFFBA8B131E00220BDE8F0872046FFF7BB
:10273000E7FB08BB0120FFF775FB2046FFF7E0FB36
:10274000D8F81010064621F00401C8F810101CE05B
:102750004FF0FF303860AC6811E02046FFF774FBA3
:102760005046FFF7CDFBD8F81010060021F002010B
:10277000C8F8101001D03C6007E004F58064D5E98A
:10278000020100EB8120A042E7D8002189F818104F
:102790003046C9E7100C00200020024003480169C0
:1027A00041F08001016100207047000000200240DC
:1027B0002DE9F05F07461C4888460024017E154637
:1027C0001E46012909D00121814601764CF2503A7A
:1027D0005046FFF795FB18B122E00220BDE8F09FBC
:1027E000012F02D0022F00D00427D346DFF83CA0EF
:1027F000220128463146FDF7E1FC81B208EB440096
:10280000FFF734FB5846FFF77BFBDAF8102022F085
:102810000102CAF8102018B9641CE4B2BC42E7D324
:10282000002289F81820D9E7100C0020002002406F
:10283000064900200A69120607D5054A4A60054A7A
:102840004A600969090600D501207047002002404E
:1028500023016745AB89EFCD2DE9F0411A4C207972
:1028600001282ED0194D002029684862284600F022
:10287000AFFD40F2BE564FF40067DFF8548005E02C
:102880002868406A80B2E080B04205D839464046A8
:1028900000F022F90028F3D10C4800F0C5FD2868AB
:1028A000406AFDF730FE0B49FDF768FD0A49FDF768
:1028B00033FD4FF0FF31FDF79FFD0849FDF72CFD7B
:1028C0002060BDE8F081000088000020FC060020A8
:1028D000000C0140002474490000AA430000C842D3
:1028E000044910B50A68024202D00860FFF7B4FF3D
:1028F00010BD0000140401402DE9F84FDFF8B89135
:10290000002409F1040A0AF1040B23460F270BF1F6
:10291000040EC9E00125A5402A40AA427DD1674E98
:10292000D1F804C0ACEB0608B44532D014DCBCF1DD
:10293000030F3AD009DCBCF1000F2AD0BCF1010F23
:102940001CD0BCF1020F31D11DE0BCF1110F17D02A
:10295000BCF1120F2AD119E0B8F5881F19D006DC96
:10296000B8F5803F15D0B8F5801F1FD111E0B8F53C
:10297000001F0ED0B8F5041F18D10AE0CB6815E08F
:10298000CB681B1D12E0CB6808330FE0CB680C331B
:102990000CE08B682BB1012B4FF0080303D045618D
:1029A00004E0042302E0056100E00023FF2A01D8CF
:1029B000064601E000F104064FEA840501D9A5F1BD
:1029C0002005D6F8008007FA05FC28EA0C0803FA6F
:1029D00005F548EA0508C6F800804D68ED0062D5A7
:1029E000374DAE6946F00106AE61AD6924F00306CD
:1029F00005F001050095334D06EB050CDCF8085099
:102A0000A607360F07FA06F825EA0805DFF8B880AA
:102A1000404503D14FF0000817E044E0DFF8AC80F8
:102A2000404502D14FF001080FE0DFF8A480404597
:102A300002D14FF0020808E0DFF89880404502D14B
:102A40004FF0030801E04FF0040808FA06F848EADE
:102A50000508CCF808804D68D9F80060ED034D46B4
:102A600001D5164300E096432E604D68DAF8006009
:102A7000AD03554601D5164300E096432E604D68E0
:102A8000DBF80060ED025D4601D5164300E0964399
:102A90002E604D68DEF80060AD02754601D5164324
:102AA00000E096432E60641C0D682A46E5407FF4E2
:102AB00031AFBDE8F88F00000004014000001110A4
:102AC000001002400000014000080140000C0140DD
:102AD00000100140001401408068084000D001202F
:102AE0007047C26821EA02030A4043EA02410161D9
:102AF00070470AB1016170470904FBE7014880682B
:102B000070470000C000002002488168027811442C
:102B100081607047C0000020074810B5016841F08F
:102B200010010160032000F07BF80F2000F006F890
:102B300000F024F8002010BD0020024070B50D4DBB
:102B400004464FF47A712878B1FBF0F00A4909681D
:102B5000B1FBF0F000F07CFB48B9102C07D200224A
:102B60002146501E00F03CF800206C6070BD012032
:102B700070BD0000C0000020CC0000200F4808B548
:102B8000816941F001018161816901F001010091D8
:102B9000C16941F08051C161C069002200F08050DC
:102BA00000900F21901E00F01BF80548416821F0AD
:102BB000E06141F00071416008BD0000001002407A
:102BC00000000140002809DB00F01F0201219140B4
:102BD0004009800000F1E020C0F8001170470000BB
:102BE000F0B40E4B1B680C46C3F30223C3F1070578
:102BF000042D00D90425191D072901D2002300E066
:102C0000DB1E012606FA05F1491E214099409E402F
:102C1000761E16403143F0BC02F058BC0CED00E0CB
:102C2000064900F0070208684FF6FF03184040EA23
:102C30000220034A10430860704700000CED00E0DA
:102C40000000FA052DE9F84305460078354CC00729
:102C500054D0E0690026C00008D4E06940F08050FC
:102C6000E061E069012600F0805000902E48016884
:102C7000C90512D40168804641F480710160FFF7F4
:102C80003DFF074605E000BFFFF738FFC01B642883
:102C900023D8D8F80000C005F6D5206A10F440709B
:102CA00021D0A98801F4407181421CD0206A1F49BB
:102CB000012220F440700A6000220A602062C007EE
:102CC00011D0FFF71BFF074641F2883808E000BF2C
:102CD000FFF714FFC11B414502D90320BDE8F8836B
:102CE000206A8007F4D5206A696820F440700843A0
:102CF00020621EB1E06920F08050E06128788007F2
:102D000005D56068A96820F44040084360602878D1
:102D1000C00605D56068E96820F48000084360605B
:102D20000020DBE7001002400070004040044242F7
:102D3000704700002DE9F0470F46050061D0434E73
:102D4000306800F00700B84209D2306820F0070070
:102D500038433060306800F00700B84251D128682D
:102D60003B4C810712D5400703D5606840F4E06012
:102D700060602878000703D5606840F460506060A8
:102D80006068A96820F0F000084360602878C007F8
:102D900028D06868012810D02168022810D089073F
:102DA00000292EDA616821F0030101436160FFF719
:102DB000A5FE804641F288390DE021688903EFE7DE
:102DC0008901EDE7FFF79AFEA0EB0801494502D91A
:102DD0000320BDE8F0876068696800F00C00B0EB84
:102DE000810FEFD1306800F00700B8420BD930688E
:102DF00020F0070038433060306800F00700B84228
:102E000001D00120E5E72878400705D56068E9682A
:102E100020F4E060084360602878000706D5606809
:102E2000296920F4605040EAC100606000F03EF87B
:102E30006168084AC1F30311515CC8400649086043
:102E400006480068FFF77AFE0020C2E70020024033
:102E500000100240E08B0008CC000020C4000020DD
:102E600001490120C86470470000424204480549F6
:102E700000684968044AC1F30221515CC8407047A8
:102E8000CC00002000100240F08B000804480549E7
:102E900000684968044AC1F3C221515CC8407047C8
:102EA000CC00002000100240F08B000812A185B079
:102EB0000FC98DE80F0014A0144A006804905168EF
:102EC000134801F00C03042B10D0082B0ED1C1F3D2
:102ED0008343C9031DF803000AD5516804AAC1F34E
:102EE0004041515C0A4A5043B0FBF1F005B07047D5
:102EF00008494843FAE700000203040506070809E9
:102F00000A0B0C0D0E0F1010010200000010024001
:102F100000127A0000093D0010B5044CA0680006BC
:102F200003D5FFF705FF8020A07210BD00100240FE
:102F30002DE9F84F040070D02078C04DC00749D06B
:102F40006868C0F38100012807D06868C0F3810079
:102F5000022809D16868C00306D52868800339D5DE
:102F600060680028E7D035E06068B0F5803F0BD09E
:102F700010B1B0F5A02F11D0286820F4803028605F
:102F8000286820F4802002E0286840F4803028601F
:102F9000606890B1FFF7B2FD06460AE0286840F489
:102FA00080202860F0E700BFFFF7A8FD801B6428A1
:102FB00073D828688003F7D50CE0FFF79FFD06461D
:102FC00005E000BFFFF79AFD801B6428F0D8286851
:102FD0008003F7D420789A4E80074FF001094FF014
:102FE000000839D5686810F00C0F07D06868C0F386
:102FF0008100022809D16868C00306D428688007C8
:1030000014D52069012808D110E02069B0B1C6F8B4
:103010000090FFF773FD074605E00AE1FFF76EFD3C
:10302000C01B0228C4D828688007F7D528686169C2
:1030300020F0F80040EAC10028600DE0C6F80080EA
:10304000FFF75CFD074604E0FFF758FDC01B0228B0
:1030500023D828688007F7D4207800072CD5794832
:10306000A169D9B1C0F80090FFF748FD074604E018
:10307000FFF744FDC01B02280FD8686A8007F7D508
:1030800071484FF4FA510068B0FBF1F0009000BFB6
:103090000098411E0091FAD20EE080E0C0F8008056
:1030A000FFF72CFD074604E0FFF728FDC01B0228B0
:1030B00075D8686A8007F7D42078400760D5E8693A
:1030C0000027C00008D4E86940F08050E861E86952
:1030D000012700F0805000905C480168C90513D4B6
:1030E0000168834641F480710160FFF707FD824665
:1030F00006E000BFFFF702FDA0EB0A0064284ED8EF
:10310000DBF80000C005F5D5E06801280AD008B159
:10311000052813D0286A20F001002862286A20F0D0
:10312000040002E0286A40F001002862E06841F2F1
:10313000883B98B1FFF7E2FC82460BE0286A40F03A
:1031400004002862EEE700BFFFF7D8FCA0EB0A01FD
:1031500059455AD8286A8007F6D50CE0FFF7CEFC0F
:10316000824605E0FFF7CAFCA0EB0A0159454CD89E
:10317000286A8007F6D41FB1E86920F08050E86122
:10318000E06988B36968C1F38101022944D002284B
:10319000C6F8608004D0FFF7B1FC044638E034E0A4
:1031A000FFF7ACFC074604E0FFF7A8FCC01B0228B1
:1031B0002BD828688001F7D4206AB0F5803F05D16C
:1031C0006868A16820F4003008436860D4E9080109
:1031D0000843696821F4741108436860C6F8609078
:1031E000FFF78CFC044606E025E000BFFFF786FCF5
:1031F000001B022809D828688001F7D51BE000BF12
:10320000FFF77CFC001B022802D90320BDE8F88FE1
:1032100028688001F4D40EE00128F7D06868226A9B
:1032200000F48031914204D1616A00F47010884248
:1032300001D00120EAE70020E8E70000001002408A
:103240000000424280044242CC0000200070004056
:1032500010B5401EB0F1807F01D3012010BD4FF0AA
:10326000E02460610F21601702F030F90020A061B6
:1032700007202061002010BD7047704710B590F8FE
:103280003C20012A22D0012280F83C20CA688C68A8
:1032900022F4407222434C6822F4806222430C687C
:1032A00022F4006222430C6922F4805222434C69CA
:1032B00022F400522243C969002322F480420A43C7
:1032C00001684A6480F83C30002010BD022010BD27
:1032D00070B590F83C20012A26D0012480F83C40AB
:1032E000022280F83D2003685A689D6822F070062B
:1032F0000A6832435A600D4B02689A4208D0B2F114
:10330000804F05D00A4B9A4202D00A4B9A4204D110
:10331000496825F080031943916080F83D40002101
:1033200080F83C10084670BD022070BD002C0140A2
:10333000000400400008004010B5040003D094F8D9
:103340003D0010B107E0012010BD002084F83C00D2
:10335000204600F01FF8022084F83D00211D20685F
:1033600001F08EFC012084F8460084F83E0084F8C9
:103370003F0084F8400084F8410084F8420084F85B
:10338000430084F8440084F8450084F83D000020A0
:1033900010BD000008B500680B49884212D10B48E7
:1033A000C16941F00401C161C069002200F004005C
:1033B000009005211E20FFF713FCBDE808401E20E9
:1033C000FFF700BC08BD00000008004000100240EC
:1033D00090F83D10012901D001207047022180F8AA
:1033E0003D100168CA6842F00102CA6000680B49DA
:1033F000884208D0B0F1804F05D00949884202D0F8
:103400000849884204D1816801F00701062903D0E8
:10341000016841F00101016000207047002C01406B
:1034200000040040000800400168CA6822F0010260
:10343000CA6001680A6A41F211131A4207D10A6A86
:103440009B101A4203D10A6822F001020A6001218E
:1034500080F83D100020704770B5044690F83C009D
:10346000012817D0012584F83C50022084F83D0043
:103470002068826822F0770222F47F428260086826
:10348000502830D00DDC20284DD005DC98B3102812
:103490003BD148E0022070BD302844D0402834D1D0
:1034A00039E0602828D0702806D0B0F5805F2CD095
:1034B000B0F5005F29D10AE0CB68D1E9012120688D
:1034C00001F021FC2068816841F0770109E0CB68B8
:1034D000D1E90121206801F016FC2068816841F4DF
:1034E0008041816011E0CA684968206801F0C0FC31
:1034F0005021206807E016E0CA684968206801F09A
:10350000C8FC6021206801F008FC84F83D500020D0
:1035100084F83C0070BDCA684968206801F0A8FCC6
:1035200040212068EFE7226801461046EBE72DE9CD
:10353000F0410D46040003D094F83D0018B108E0B6
:103540000120BDE8F081002084F83C00204600F016
:1035500041F8022084F83D002068816844F20702A7
:1035600091438160211D206801F08AFB22689068E8
:103570009169166A2B68AF69034340F203308143B7
:1035800041EA0721A868EF6908434FF6FC418843E8
:10359000E96840EA0720014328692F6A000140EAF0
:1035A0000730084369686D6926F0220646EA05156A
:1035B000294393602268906154F8460B0162012010
:1035C00004F81F09E0752076E0762077A0750020CA
:1035D000B7E7000000B585B000210091019102918C
:1035E00003910068B0F1804F16D10C48C16941F0D9
:1035F0000101C161C16901F001010491816941F0DA
:10360000040181618069694600F004000490032090
:1036100000900348FFF770F905B000BD00100240AC
:103620000008014070B590F83E60044690F83F50A5
:1036300090F8423090F84320022021B104290ED0A6
:10364000012E1BD114E0012E18D1012B16D184F8C4
:103650003E0084F8420001220021206820E0012D74
:103660000CD1012A0AD184F83F0084F8430014E009
:10367000012D03D1012B01D1012A01D0012070BD00
:1036800084F83E0084F83F0084F8420084F8430048
:1036900001220021206801F029FB01220421206879
:1036A00001F024FB2068016841F001010160002065
:1036B00070BD704770B50446006801694FF00005A1
:1036C000C943890715D4C168C943890711D4E91EC4
:1036D000016101202077206880698007204602D0A0
:1036E000FFF7E7FF04E000F0CDF8204600F07CF99A
:1036F000257720680169C943490717D4C168C943C0
:10370000490713D46FF0040101610220207720687B
:10371000806910F4407F204602D0FFF7CAFF04E022
:1037200000F0B0F8204600F05FF9257720680169C5
:10373000C943090716D4C168C943090712D46FF0F9
:1037400008010161042020772068C06980072046B5
:1037500002D0FFF7AEFF04E000F094F8204600F03E
:1037600043F9257720680169C943C90617D4C168A0
:10377000C943C90613D46FF01001016108202077F6
:103780002068C06910F4407F204602D0FFF791FF07
:1037900004E000F077F8204600F026F9257720684D
:1037A0000169C943C90708D1C168C943C90704D120
:1037B000891E0161204600F067F920680169C9434C
:1037C000090609D4C168C943090605D46FF0800110
:1037D00001612046FFF750FD20680169C943490691
:1037E00009D4C168C943490605D46FF0400101619D
:1037F000204600F04AF920680169C94389060BD4C4
:10380000C168C943890607D46FF0200101612046D1
:10381000BDE87040FFF731BD70BD000010B586B047
:1038200000210091019102910391124C0368124909
:1038300002221248A34209D18B6943F004038B6131
:10384000896901F00401049181150BE00C4CA3423D
:103850000ED18B6943F004038B61896901F0040187
:103860000491C021CDE9001269460392FFF744F8A4
:1038700006B010BD002C01400010024000080140BD
:1038800000040040704770B5044690F83C000D46B7
:1038900001280AD0012084F83C0042B1042A18D043
:1038A000082A2AD00C2A4DD139E0022070BD2068A8
:1038B00001F03CFA2068816941F0080181612068CB
:1038C000816921F004018161206881692A691143BD
:1038D00011E0206801F052FA2068816941F400612A
:1038E00081612068816921F480618161206881693A
:1038F0002A6941EA0221816124E0206801F06AFA24
:103900002068C16941F00801C1612068C16921F0E6
:103910000401C1612068C1692A69114311E020686E
:1039200001F084FA2068C16941F40061C161206836
:10393000C16921F48061C1612068C1692A6941EAD5
:103940000221C161002084F83C0070BD10B5040064
:1039500003D094F83D0010B107E0012010BD002015
:1039600084F83C00204600F01FF8022084F83D0057
:10397000211D206801F084F9012084F8460084F8B4
:103980003E0084F83F0084F8400084F8410084F849
:10399000420084F8430084F8440084F8450084F829
:1039A0003D00002010BD000008B50C4A01680C481D
:1039B000914207D1816941F400618161806900F41D
:1039C000006009E0074A914207D1C16941F0020154
:1039D000C161C06900F00200009008BD002C0140E8
:1039E00000100240000400407047000010B504467B
:1039F000022249B104290ED0082913D094F84100BD
:103A0000012816D0012010BD94F83E000128F9D1FC
:103A100084F83E200FE094F83F000128F2D184F8AA
:103A20003F2008E094F840000128EBD184F84020C2
:103A300001E084F841200122206801F057F90F4984
:103A40002068884203D1426C42F4004242642068FC
:103A5000884208D0B0F1804F05D00949884202D091
:103A60000849884204D1816801F00701062903D082
:103A7000016841F001010160002010BD002C0140EF
:103A8000000400400008004070477047704710B5C0
:103A900004460068416994F83D20C1F3C011212A11
:103AA0000BD151B1416921F080014161606B08B1D6
:103AB000FEF7A0FC204601F0BAFA2068416994F8AC
:103AC0003E20C1F38011222A0BD151B1416921F06E
:103AD00040014161A06B08B1FEF78CFC204601F06B
:103AE0008EFA002010BD7047F8B5026804461068D1
:103AF000D168536910F00F0F4FF0000553D003F059
:103B0000010601F4907737435FD0C20705D0CA059C
:103B100003D5226C42F001022264420705D5DA0780
:103B200003D0226C42F002022264820705D5DA0734
:103B300003D0226C42F004022264020707D501F090
:103B40002002324303D0226C42F008022264226C2D
:103B5000002A34D0800604D5880602D5204601F01C
:103B60006FFA20684069216CC0F38010090700D407
:103B700030B3204601F043FA2068416949061BD55D
:103B8000416921F040014161A06BA8B158494163EE
:103B9000A06BFEF753FC002811D0A06B416B01B065
:103BA000BDE8F040084783060FD58B060DD52046AB
:103BB000BDE8F84001F044BA2046FFF794FFF8BD95
:103BC0002046FFF790FF2564F8BD266B2023012EC9
:103BD00052D1C60650D5CE064ED51068506800901A
:103BE000506940062AD5A16B086840680004000CA3
:103BF000EAD0A68D8642E7D9E0858869202818D0CA
:103C0000D06820F48070D0602068416921F0010103
:103C100041612068416921F04001416184F83E30F2
:103C200025632068C16821F01001C160A06BFEF718
:103C3000E1FBA08DE18D401A81B219E0A08DE18DEC
:103C4000401A81B2E08D0028BED00029BCD0D068D7
:103C500020F49070D0602068426922F00102426135
:103C600084F83E3025632068C26822F01002C260EA
:103C70002046FFF70BFFF8BD05062BD50D0629D50D
:103C800094F83D002128F6D1A068B0F5805F01D1FD
:103C90002069B0B1206A411C216221680078486027
:103CA000E08C401E0004000CE084E4D12068C16870
:103CB00021F08001C1602068C16841F04001C1600D
:103CC000F8BD206A0088C0F308005060206A801C9C
:103CD0002062E5E74006F3D54806F1D5D1682046D5
:103CE00021F04001D16084F83D3000F0B3F9F8BD17
:103CF000F94E000870B5040004D094F83D0000258A
:103D000010B106E0012070BD84F83C50204600F060
:103D100023F8242084F83D002068C16821F4005174
:103D2000C160204601F0E8F92068016921F4904162
:103D300001612068416921F02A0141612068C16860
:103D400041F40051C1602564202084F83D0084F8CE
:103D50003E00002070BD00002DE9F04786B0002530
:103D600000950195029503950446DFF86CC1036840
:103D70005A48022103225A4E10274FF400594FF09F
:103D8000200A4FF0800863454DD1836943F4804396
:103D90008361836903F480430493836943F00403DC
:103DA00083618069039200F0040004900802CDE969
:103DB000000169463046FEF79FFD3015CDE900054C
:103DC000694630460295FEF797FD474E4548C6E9DD
:103DD0000007C6E9025835617561C6E906594746CC
:103DE0003046FEF721FC08B1FEF71AF866637462EC
:103DF0003D4E3C4844361430C6E90005C6E902573A
:103E00003561C6E9055A3046F561FEF70DFC08B18B
:103E1000FEF706F8A6630022052125207462FEF74E
:103E2000DFFE252052E0DFF8C4C0634550D1C369EE
:103E300043F40033C361C36903F40033049383691B
:103E400043F0040383618069039200F0040004904E
:103E50000420CDE9000169463046FEF74DFD0820FB
:103E6000CDE90005694630460295FEF745FD1E4E38
:103E70001C4888363C30C6E90007C6E9025835615F
:103E80007561C6E9065947463046FEF7CDFB08B1D5
:103E9000FDF7C6FF66637462134E1248CC362830B5
:103EA000C6E90005C6E902573561C6E9055A30463C
:103EB000F561FEF7B9FB08B1FDF7B2FFA66300227A
:103EC000052126207462FEF78BFE2620FEF77AFE7F
:103ED00006B0BDE8F0870000003801400010024045
:103EE0000008014044000240000B00200044004054
:103EF00090F83E30202B0ED159B152B190F83C30A1
:103F0000012B08D0012380F83C300023036301F02B
:103F10004FB901207047022070477047704700007A
:103F20002DE9F843044690F83D001F4616460D461D
:103F300020284CD1C5B1BEB194F83C00012846D030
:103F4000012084F83C004FF00008C4F84080212094
:103F500084F83D00FEF7D2FDA6848146E684A06881
:103F6000B0F5805F03D004E00120BDE8F88320694C
:103F700028B12E465FF0000584F83C800EE0002654
:103F8000FAE78021204601F04BF9A0B9AEB116F84E
:103F9000010B21684860E08C401EE084E08C4B46B9
:103FA0004FF0000200970028EBD14FF0400120466F
:103FB00001F036F930B10320D7E735F8020BC0F332
:103FC0000800E6E7202084F83D000020CDE702202D
:103FD000CBE7000070B5044690F83D00202830D1B2
:103FE00069B362B394F83C0001282AD0012084F818
:103FF0003C002162A284E28400252564212084F80B
:104000003D00636B10489862636B1048D862636B25
:104010000F481863606B134645632668606B321D5A
:10402000FEF730FB21686FF04000086084F83C50D8
:104030002068416941F080014161002070BD01208C
:1040400070BD022070BD0000C74F0008F54F00088A
:10405000094F000870477047FEE700002DE9F04166
:10406000002500F085FC0F4E00246806070E012293
:1040700040213046FEF73DFD00F0E5F88021304656
:10408000FEF72AFD40EA0705002240213046FEF7F0
:1040900030FD00F0D8F8641CE4B2082CE5D32846C3
:1040A000BDE8F081000C014070B50D46044600F0FB
:1040B00077F8204600F012F8284600F00FF800F0DC
:1040C0006FF8641CE0B200F009F8FFF7C7FF044680
:1040D00000F034F800F080F8204670BD70B5054659
:1040E000082400F055FC144E18E000BFFEF701FD57
:1040F00000F0A9F8280601D5012200E00022802165
:104100003046FEF7F6FC6806050E00F09CF801222A
:1041100040213046FEF7EDFC00F095F8641EE4B255
:104120004FF000024FF040013046DFD2FEF7E1FCD5
:10413000BDE8704000F002B8000C014010B500F07E
:1041400027FC164C002240212046FEF7D2FC00F04E
:104150007AF8012280212046FEF7CBFC00F008FC13
:1041600000F071F8012240212046FEF7C2FC00F069
:104170006AF880212046FEF7AFFC00284FF00002CD
:104180004FF04001204603D0FEF7B3FC002010BDE5
:10419000FEF7AFFC00F057F8012010BD000C014005
:1041A00010B500F0F5FB0B4C012240212046FEF734
:1041B000A0FC012280212046FEF79BFC00F043F882
:1041C000002280212046FEF794FCBDE8104000F05C
:1041D0003AB80000000C014010B500F0D9FB0F4CBC
:1041E000002240212046FEF784FC00F02CF800223B
:1041F00080212046FEF77DFC00F025F801224021B9
:104200002046FEF776FC00F01EF8012280212046B1
:10421000FEF76FFCBDE8104000F015B8000C01403F
:1042200070B515460E460446FFF7BAFF2046FFF765
:1042300055FF3046FFF752FF2846FFF74FFFBDE816
:104240007040FFF7C9BF08B501200090401E0090E4
:10425000FCD108BD1CB50446062269463B2000F08F
:1042600047F8BDF8000040BA2080BDF8020040BA0F
:104270006080BDF8040040BAA0801CBD1CB5044697
:1042800006226946432000F033F8BDF8000040BA2A
:104290002080BDF8020040BA6080BDF8040040BA3A
:1042A000A0801CBD08B500208DF8000001226946E1
:1042B000752000F01DF89DF80010682906D0982997
:1042C00004D0054801F0CAF8002008BD03A001F0A1
:1042D000C5F8012008BD0000288D00084D50553656
:1042E000303530204944203D2025640D0A0000006F
:1042F0002DE9F04116460F460546002408E0294600
:10430000D020FFF7D1FE6D1C3855641CEDB2E4B22D
:10431000B442F4D3BDE8F0810A460146D020FFF74D
:104320007FBF00003EB50021144800910191124A60
:104330000291026001248160047301754FF46022D0
:104340000461C2614160FDF7F9FE08B1FDF768FD47
:104350000420CDE900040720029069460748FDF7D4
:104360006BFE08B1FDF75CFD0449142228390348AF
:10437000FDF7BAFF3EBD000000240140B00500205B
:10438000194808B5416941F00101416140690022C5
:1043900000F00100009005210B20FEF721FC0B200E
:1043A000FEF710FC002205210E20FEF719FC0E205E
:1043B000FEF708FC002205210F20FEF711FC0F205C
:1043C000FEF700FC002205211020FEF709FC10205A
:1043D000FEF7F8FB002205211120FEF701FCBDE8E5
:1043E00008401120FEF7EEBB0010024030B52E4D04
:1043F000B3B02AAC95E80F0084E80F0000212AA88A
:1044000002F028FE294C1035A06195E80F002EAD72
:1044100085E80F0000212EA802F01CFE2249E06171
:104420001C2220316846FBF7D9FE0021684602F0C5
:1044300024FE1D4920601C223C3107A8FBF7CEFE5C
:10444000002107A802F019FE174960601C225831AC
:104450000EA8FBF7C3FE00210EA802F00EFE1249C3
:10446000A0601C22743115A8FBF7B8FE002115A826
:1044700002F003FE0C49E0601C2290311CA8FBF7FF
:10448000ADFE00211CA802F0F8FD074920611C22A6
:10449000AC3123A8FBF7A2FE002123A802F0EDFD1A
:1044A000606133B030BD0000188B00089800002018
:1044B0002DE9F04786B000243F480094019402940F
:1044C0000394816941F010018161816901F010015B
:1044D0000491816941F020018161816901F020012D
:1044E0000491816941F004018161816901F0040155
:1044F0000491816941F0080181618069012200F025
:1045000008002E4F5503049029463846FEF7F1FA6D
:10451000DFF8AC90002243F2D8714846FEF7E9FA82
:10452000DFF8A0A04FF48058002241465046FEF725
:10453000E0FA0095032601250396CDE9015469466A
:104540003846FEF7D9F91020CDE9000669465046F5
:10455000FEF7D2F94FF4FB600227CDE90005CDE963
:10456000024769464846FEF7C7F9E8020090164838
:10457000CDE9010469464846FEF7BEF93003CDE9AE
:104580000005CDE9024669464846FEF7B5F9CDF883
:1045900000800397CDE9015469465046FEF7ACF917
:1045A00000220F212820FEF71BFB2820FEF70AFB24
:1045B00006B0BDE8F0870000001002400010014086
:1045C000000C0140000801400000111010B592B02D
:1045D00000240F941C2108A81094FBF718FE20213A
:1045E0006846FBF714FE20481E49016041F61F4152
:1045F000C0E90114C721C0E9031444618461FFF7D5
:10460000A5F908B1FDF70CFC0F940FA916481094FA
:10461000FEF75EFE08B1FDF703FC6020CDE908045B
:104620000A940B940C940D94002208A90E480E9441
:10463000FFF729F908B1FDF7F3FB00944FF40050A0
:10464000CDE9044002940194039469460648079416
:10465000FEF714FE08B1FDF7E3FB0348FFF7DEF8B1
:1046600012B010BD002C01402406002010B58CB003
:1046700024216846FBF7CBFD0024174809944FF02E
:1046800080410A94C0E900144CF25031C0E9024163
:10469000046184610320CDE900040120CDE9020416
:1046A00006210491CDE90540CDE9074169460A4854
:1046B000FEF73DFF08B1FDF7B3FB099409A90648D1
:1046C0000A94FEF705FE08B1FDF7AAFB3C2102485B
:1046D000FEF7A8FF0CB010BD6C06002010B58AB024
:1046E000002407941C2168460894FBF790FD1B48A2
:1046F000194901600721C0E9011440F2CF71C0E9F6
:1047000003148461FFF722F908B1FDF789FB0794D0
:1047100007A912480894FEF7DBFD08B1FDF780FBFE
:104720007020CDE900040294002269460B480494ED
:10473000FFF7A9F808B1FDF773FB60200090042291
:1047400069460648FFF79FF808B1FDF769FB034883
:10475000FFF764F80AB010BD00040040B406002062
:1047600010B586B000241848009401940294039474
:1047700004941449059401604721C0E901144CF2E6
:104780005031C0E903148461FEF7D6FD08B1FDF78E
:1047900047FB4FF48050009069460B48FEF75CFEE3
:1047A00008B1FDF73DFB049404A907480594FEF702
:1047B0008FFD08B1FDF734FB0348FEF709FE06B094
:1047C00010BD000000080040FC06002010B5114C90
:1047D0000F480C2120604FF4E13060600020A060A1
:1047E000E060C4E90401A061E0612046FFF782FABD
:1047F00008B1FDF715FB2068C16841F01001C160E8
:10480000BDE81040C82204490248FFF771BB000010
:1048100000380140780A00201408002010B5114C1F
:104820000F480C2120604FF4E13060600020A06050
:10483000E060C4E90401A061E0612046FFF75AFA94
:1048400008B1FDF7EDFA2068C16841F01001C160C0
:10485000BDE81040C82204490248FFF749BB0000E8
:1048600000440040BC0A0020AE09002010B502F050
:104870005FFFBDE8104002F0E7BFFEE7FEF74CFB2C
:10488000FEE7000070B504460078154623286AD17B
:1048900036A1601CFBF7C6FC01F006FFFBF784FEA7
:1048A000C0B209285FD131A1E01CFBF7BBFC01F0CD
:1048B000FBFEFBF75AFE06462CA10020FBF7B2FCDC
:1048C00001F0F2FEFBF751FE064428A10020FBF7A1
:1048D000A9FC01F0E9FEFBF748FE064423A10020F5
:1048E000FBF7A0FC01F0E0FEFBF73FFE3044C01FE9
:1048F00002F0C0F8C6B21DA10020FBF793FC01F046
:10490000D3FEFBF751FEC0B286422CD117A1E01CAA
:10491000FBF788FC01F0C8FEFBF746FE287213A1E6
:10492000601DFBF77FFC01F0BFFEFBF73DFE6872E8
:104930000EA1E01DFBF776FC01F0B6FEFBF734FE9E
:10494000C0B2FBF7E0FD286008A104F10900FBF705
:1049500069FC01F0A9FEFBF727FEC0B2FBF7D3FD0F
:104960006860002070BD012070BD00002C000000B8
:104970001FB500200190029080200090012003903C
:1049800069460248FDF7B8FF1FBD0000000C01405A
:104990001FB500200290802000901120019001207E
:1049A000039069460148FDF7A7FF1FBD000C0140B9
:1049B000FCF788FF00F0B6FC502002F03FFBF7E761
:1049C00003F0AAF8142002F039FBF9E700F02EFDFD
:1049D000FCF716FC0A2002F031FBF7E70023322235
:1049E0006421184602F09CF80E4C0F4D0F4F6FF0EB
:1049F0000B060F4802F06CF803F048F802F086FE50
:104A00002080FBF780FD2946FBF786FC3146FBF74B
:104A1000F3FC3946FBF780FC60600A2002F00EFBD5
:104A2000E7E70000B8000020333353400000304176
:104A30003C01002008B500210C232EA20846FDF7FA
:104A40007DF90C232DA201210020FDF777F90C231D
:104A50002CA202210020FDF771F90C232CA20321C6
:104A60000020FDF76BF90C232CA204210020FDF798
:104A700065F90C232CA205210020FDF75FF92C4DD0
:104A80002C4EDFF8B4902D4FDFF8B4800C24009446
:104A9000052300215020EA69FDF7D8F8009405238A
:104AA000012150207268FDF7D1F805234A46022102
:104AB00050200094FDF7CAF805230022032150205E
:104AC0000094FDF7C3F83868FBF714FD0246052390
:104AD000042150200094FDF7B9F8009405231946ED
:104AE0005020D8F80020FDF7B1F8282002F0A6FAEF
:104AF000CDE70000726F6C3A000000006465733A05
:104B000000000000646972424153453A0000000011
:104B100064697241444A5553543A0000656E636FAC
:104B20006465723A000000006469733A0000000096
:104B3000C802002054020020000020416000002034
:104B4000880000201CB51C491C4C0120087104F190
:104B50000C0604F1180500BF01F024FE01F052FE1E
:104B60001649174801F038FE3146154801F0B6FEE7
:104B700001F018FE13491448626A01F04EFA294602
:104B8000104801F0F9FDD4E90701CDE9000104F175
:104B90000C000FC801F0DCFFFFF768FE02F09EFD7D
:104BA00000F0A2FD00F026FD084801F0D5FE05202A
:104BB00002F044FAD0E700008800002054020020F0
:104BC000600100204802002054010020480100201C
:104BD00010B5FDF799FF03F067FA012803D0BDE88F
:104BE000104003F057B910BD30B593B02821684686
:104BF000FBF70DFB14210AA8FBF709FB0025012098
:104C00000F9510951195010412958DE823000490DD
:104C10004FF4E010CDE90810022407946846FEF72F
:104C200087F908B172B6FEE70AA90F2081E83100C2
:104C30004FF48060CDE90D0502210AA8FEF77AF84D
:104C400008B172B6FEE74FF4004011900F940FA820
:104C5000FDF7F8FF08B172B6FEE7FEF701F913B0F1
:104C600030BD704710B50448FEF724FD0348C16805
:104C7000491CC16010BD0000FC0600208800002017
:104C8000F0B50268164B174C174D4FF0804798420D
:104C900005D0B84203D0A04201D0A84203D122F0EF
:104CA00070064A683243984205D0B84203D0A04209
:104CB00001D0A84203D122F44074CA6822434C694F
:104CC00022F08002224302608A68C2620A6882621D
:104CD000984201D10969016301214161F0BD0000E1
:104CE000002C0140000400400008004010B501F015
:104CF0001F030121046A99408C430462016A9A40AF
:104D00001143016210BD10B5846842EA032224F405
:104D10007F440A432243826010BD826822F0700201
:104D20000A4342F0070181607047000030B5026A13
:104D300022F001020262026A4368846924F073056A
:104D40000C682C4322F002058A682A430A4DA842C7
:104D50000BD122F00805CA6823F440732A434D6939
:104D600022F004021D438B692B4343608461496830
:104D70004163026230BD0000002C014030B5026A80
:104D800022F010020262026A436884690D6824F40A
:104D9000E64444EA05248D6822F0200242EA051226
:104DA0000B4DA8420ED1CD6822F0800242EA0512D6
:104DB0004D6923F4406343EA85038D6922F0400284
:104DC00043EA85034360846149688163026230BDC0
:104DD000002C014030B5026A22F480720262036A3C
:104DE0004268C46923F4007324F073050C682C43F3
:104DF0008D6843EA05230C4DA8420ED1CD6823F4FB
:104E0000006343EA05234D6922F4405242EA051249
:104E10008D6923F4806342EA05124260C4614968E7
:104E2000C163036230BD0000002C014030B5026A4E
:104E300022F480520262046A4268C3690D6823F456
:104E4000E64343EA05238D6824F4005444EA05341C
:104E5000064DA84204D14D6922F4804242EA8512EF
:104E60004260C36149680164046230BD002C0140A6
:104E700010B5036A046A24F001040462846924F012
:104E8000F00444EA021423F00A020A438461026235
:104E900010BD10B5036A23F0100303628369046A2E
:104EA00023F4704343EA023224F0A00343EA0111E1
:104EB0008261016210BD000070B50C4D0446E968C6
:104EC000FBF7BAFB11D00A4814F0FF4F04D0094990
:104ED0008C4203D1072105E00D2103E0B4F1804F9E
:104EE00002D10A2100684163EC6070BD68000020B7
:104EF000240600200000A04010B5406A0021C185B2
:104F0000C184FEF7F0FD10BD70B5446A20684069A9
:104F100094F83D10C0F3C0100025212904D118B128
:104F2000E584204600F083F82068406994F83E103C
:104F3000C0F38010222904D118B1E585204600F085
:104F40005EF8206C40F0100020642046FEF7CBFD98
:104F500070BD10B50146406A0968096889061BD40E
:104F60000021C1850168CA6822F48072CA600168A4
:104F70004A6922F001024A6101684A6922F040024E
:104F80004A61202180F83E10016B012904D101689B
:104F9000CA6822F01002CA60016B012902D0FEF734
:104FA000BCFF10BD818DFEF771FD10BD10B5406ACC
:104FB000016B012902D0FEF7B1FF10BD818D4908B8
:104FC000FEF764FD10BD10B50146406A0968096826
:104FD00089060CD40021C18401684A6922F080024C
:104FE0004A610068C16841F04001C16010BDFFF72F
:104FF00031F810BD10B5406AFFF72DF810BD0168FB
:10500000CA6822F49072CA6001684A6922F00102FB
:105010004A61016B012904D10168CA6822F01002BB
:10502000CA60202180F83E100021016370470168AA
:10503000CA6822F0C002CA60202180F83D10704783
:1050400008B590F83E10222901D0022008BD8268E0
:105050004FF480539A4201D1016921B1816A9A4289
:105060001BD04AB10AE00268816A5268C2F30802A2
:105070000A80816A891C08E0026972B1026852687C
:1050800002F07F020A70816A491C8162C18D491E4B
:105090000904090CC18503D019E002685268F1E7E0
:1050A0000168CA6822F02002CA600168CA6822F456
:1050B0008072CA6001684A6922F001024A612021B7
:1050C00080F83E10016B012903D0FEF726FF002077
:1050D00008BD002101630168CA6822F01002CA609D
:1050E00001680A68D20602D50A6849680091818D74
:1050F000FEF7CCFCEBE7000070B5044600680169E0
:10510000E26821F44051114301612169A06808431C
:10511000616908432168CA6841F20C639A430243FB
:10512000CA6020684169A26921F44071114341615C
:105130001E492068884202D1FDF7A8FE01E0FDF774
:1051400095FE00EBC00101EB001260686421800055
:10515000B2FBF0F3B3FBF1F36FF018067343B2FB4D
:10516000F0F5B2FBF0F605EB8305322303EB0515F2
:10517000B5FBF1F5B6FBF1F605F0F00505EB06150C
:10518000B2FBF0F6B2FBF0F0B0FBF1F06FF01802FA
:10519000504306EB800003EB0010B0FBF1F02168F8
:1051A00000F00F002844886070BD00000038014006
:1051B00038B58162828500251346044605642220A5
:1051C00084F83E00A26B13489062A26B1248D06232
:1051D000A26B12481063A06B0A4645632168A06B5E
:1051E000091DFDF74FFA206801684168009184F8B5
:1051F0003C50C16841F48071C1602068416941F050
:10520000010141612068416941F040014161002094
:1052100038BD0000534F0008AD4F0008094F00088B
:105220002DE9F041984617460E460446069D1DE0BE
:10523000681C1BD02DB1FDF761FCA0EB0800A84253
:1052400014D92068C16821F4D071C1602068416917
:1052500021F001014161202084F83D0084F83E00E6
:10526000002084F83C000320BDE8F081206800683D
:1052700036EA000004D00020B842D9D00020F3E77D
:105280000120F9E738B5104C20680068C043C0061B
:1052900015D40E48C06D0E4DC0F1C8006880204680
:1052A000FEF7F5FB012085F89801C82205F1D00131
:1052B0002046FEF71DFE2068016840680090BDE8AA
:1052C00038400148FEF710BC780A00200000024078
:1052D0004407002038B5104C20680068C043C00661
:1052E00015D40E48006F0E4DC0F1C80068802046EE
:1052F000FEF7CDFB012085F89801C82205F1D00109
:105300002046FEF7F5FD2068016840680090BDE882
:1053100038400148FEF7E8BBBC0A0020000002400C
:10532000DE0800202DE9F041144FA2B0386AFBF7E7
:1053300054F980460E46B869FBF74FF904460D460E
:10534000F869FBF74AF902460D480B46B0F904101C
:10535000B0F90070B0F90200CDE90571CDE9036044
:105360008DE8300107A107A800F088F86C2107A894
:1053700000F040F822B0BDE8F0810000C802002033
:10538000060000202352252E31662A522350252E56
:1053900031662A502359252E31662A59234759252B
:1053A000642A475923475825642A475823475A25D2
:1053B000642A475A00000000FEE7000070B5C829C3
:1053C00001D9C82500E00D4669B1084C20B101465D
:1053D0002A462046FAF702FF2A4621460448FEF7ED
:1053E000F9FD284670BD002070BD00004C0700206C
:1053F000780A002070B5C82901D9C82500E00D46FB
:1054000069B1084C20B101462A462046FAF7E6FE6B
:105410002A4621460448FEF7DDFD284670BD0020DF
:1054200070BD0000E6080020BC0A002070B50A4CE0
:1054300094F8980101280DD104F1D000A178054617
:10544000FBF77AFF61882846FAF7E1FE00206080CA
:1054500084F8980170BD0000440700200FB4054B8C
:1054600010B503A9044A029800F034FA10BC5DF8A4
:1054700014FB000061670008340100200FB4084BE2
:1054800010B504A902AA039800F024FA044602A960
:10549000002000F0BDFD204610BC5DF814FB0000AC
:1054A00011600008490050EAC12018BF04204A0DCD
:1054B00018BF40F0010040F2FF72B2EB515F08BF2D
:1054C00040F00200012808BF052070470907090EB7
:1054D000002804DB00F1E02080F80014704700F0A1
:1054E0000F0000F1E02080F8141D70472DE9F04115
:1054F0004F1E00EBC7010446D1E9000115461E46C8
:1055000037F006020DD02A463346FAF781FF7F1E98
:1055100004EBC703D3E90023FBF7CCF937F006020D
:10552000F1D1022F25D0042F13D0062F18BFBDE8CC
:10553000F0812A463346FAF76BFFD4E90A23FBF7DA
:10554000B9F92A463346FAF763FFD4E90823FBF793
:10555000B1F92A463346FAF75BFFD4E90623FBF795
:10556000A9F92A463346FAF753FFD4E90423FBF797
:10557000A1F92A463346FAF74BFFD4E90223FBF799
:1055800099F92A463346FAF743FFD4E90023BDE8E8
:10559000F041FBF78FB90122FBF7A2BAFBF78AB9FA
:1055A0000022134610461146FBF72BBA024A002090
:1055B0001107FBF795BA000001FDFFFF01480068E5
:1055C000704700003801002002E008C8121F08C11F
:1055D000002AFAD170477047002001E001C1121F74
:1055E000002AFBD1704700000149086070470000A5
:1055F000380100202DE9F041334EF06901F0AAF89E
:10560000324F334CB84204F1080512DD0026E68023
:1056100001202070FCF7F0FB2E482E6001F08DF881
:105620002C482C3801F089F82A482C3001F085F8F4
:105630001CE0294840F6C411B0F90400A0F6C410DB
:10564000884213D8F06901F085F8B8420EDC207862
:1056500060B940F2DC50E080FCF7DAFB02F02EFA91
:105660001C482C38C06FFAF753FF28602A681B4883
:105670004FF40071002A01DD002200E00122FDF755
:1056800038FA174C2068FFF717FC606801F03CF906
:10569000286801F0EFF985B2606802F0B3F90446BA
:1056A0004FF4FA6632460021284602F0E8F90D4D23
:1056B0002968486332460021204602F0E0F9296853
:1056C0008863BDE8F0810000C80200200000A0410E
:1056D00068000020CC03002000000020000C0140E6
:1056E00078000020B406002010B5114C0020606343
:1056F00010480068FAF7FEFEA06304F12C0001F0E8
:10570000E6FC206DA0600C48C06980F00040E060BD
:10571000204601F0DCFC606A20660848406880F0A2
:105720000040606604F15800BDE8104001F0CFBCB5
:10573000A003002060000020C802002054020020C6
:105740002DE9FF5F82B00021DDE90430020DDDF8B4
:1057500040B0034318D044F61050A2F2FF32424347
:105760001514119801281FD0A5EB0B00401C5FEA0F
:10577000000A4FF000064E4FDFF83891B046504611
:1057800015D5CAF1000413E0119801244AA3012899
:1057900001D16FEA0B010298119AC0E90031C0E90A
:1057A000024206B0BDE8F09FCBF10000DFE70446FF
:1057B0000021404A491842EB0450CDE9001012E0A4
:1057C000E00707D032463B4640464946FAF720FEFE
:1057D0008046894632463B4610461946FAF718FE7F
:1057E00006460F466410002CEAD1DDE90401DDE92C
:1057F0000023BAF1000F06DAFAF70AFE42464B46DA
:10580000FAF706FE05E0FBF7FCF842464B46FBF7CD
:10581000F8F804460E460022284BFBF791F903D80E
:105820004FF0FF30014607E00022254B204631466D
:10583000FBF740F8FBF76BF9102409E0002C0ADBBA
:105840000A220023FAF722FF039B30321A55641E06
:1058500050EA0102F2D1641C039AC4F1110314440A
:10586000119A012A03D0012208430DD10AE008430E
:1058700004D000204FF0110B119072E7A3EB0B0541
:105880006D1E0DE05B4504DD4FF0000205F10105E2
:1058900004E003DA4FF00002A5F10105002AECD084
:1058A00002981199C0E90231C0E9004579E700008A
:1058B000000014400000F03F300000000000F04302
:1058C0000000E03F30380A2801D201207047002054
:1058D000704700002DE9FF4F95B09B46894606466C
:1058E00000250FE2252877D100242746F84A012118
:1058F000059400E0044316F8013F203B01FA03F051
:105900001042F7D130782A2811D06FF02F03307869
:10591000A0F13002092A16D8059A44F0020402EBDD
:10592000820203EB42021044761C0590EFE759F81F
:10593000042B0592002A03DA504244F400540590E7
:1059400044F00204761C30782E2816D116F8010F88
:1059500044F004042A280DD06FF02F023078A0F113
:105960003003092B09D807EB870302EB4303C71861
:10597000761CF3E759F8047B761C30786C280FD03E
:1059800006DC4C2817D068280DD06A2814D104E012
:10599000742810D07A280FD10DE044F400140AE0E6
:1059A00044F4801401E044F440147278824202D13D
:1059B00004F58014761C761C307866280BD013DC36
:1059C000582877D009DC002875D04528F6D046281D
:1059D000F4D047281AD19DE118E0632835D0642817
:1059E00079D0652812D195E1702873D008DC67283A
:1059F000F1D069286FD06E280DD06F2806D1B5E0A0
:105A000073282CD0752875D0782874D05A461799E9
:105A100090476D1C75E1C4F30250022809D0032899
:105A20000DD0D9F8001004280DD00D6009F104093B
:105A300067E1D9F80010EA17C1E90052F6E7D9F892
:105A400000100D80F2E70D70F0E719F8041B8DF8D7
:105A5000001000208DF80100EA46012003E059F80B
:105A600004AB4FF0FF3061074FF0000102D40DE0AE
:105A700008F101018846B9420FDA8045F8DB1AF8CF
:105A800008100029F4D108E008F10101884681429C
:105A9000FADB1AF808100029F6D105985B46A0EB4E
:105AA000080721463846179A00F094FA284400EB7C
:105AB000080507E04DE029E10DE01AF8010B5A4610
:105AC00017999047B8F10108F7D25B46214638464E
:105AD000179A13E142E00A220092C4F302524FF0F7
